:1000000017C02FC02EC02DC040C22BC02AC029C08F
:1000100028C027C026C025C024C014C222C021C0C9
:1000200020C01FC01EC01DC01CC02F3B3B640A0166
:1000300011241FBECFEDCDBF10E0A0E6B0E0E4EF8D
:10004000F7E002C005900D92AA36B107D9F720E07B
:10005000AAE6B0E001C01D92AA39B207E1F754D276
:10006000C7C3CECF611102C0C19801C0C19A97B376
:10007000906F97BB98B39F7098BB98B3282F207F41
:10008000922B98BBC39A92E09A95F1F700C0C3985F
:1000900092E09A95F1F700C098B39F7098BB98B31F
:1000A0008295807F892B88BBC39A82E08A95F1F77D
:1000B00000C0C39887B38F7087BB88B3806F88BB3D
:1000C000089560E0CFDF85E88A95F1F70000089594
:1000D00061E0C8DF85E88A95F1F70000089581E0C6
:1000E000F0DF10926A008FE99FE00197F1F700C0FE
:1000F00000000895BB9AB99ABA9A8FE39CE90197D8
:10010000F1F700C0000060E080E2ACDF8FE097E232
:100110000197F1F700C0000060E080E2A3DF87EC08
:1001200090E00197F1F700C0000088E2CADF8FE19C
:100130009EE40197F1F700C000008CE0C2DF8FE180
:100140009EE40197F1F700C0000086E0BACFCF939C
:10015000C82F80FF02C080E401C080E0C23008F0F8
:10016000805F860F8068ADDFC0936A00CF910895ED
:10017000CF93DF93EC018991882389F08A3019F0BD
:100180008D3031F00AC080916A008F5F80936A00E1
:1001900080916A0060E0DBDFEECF9ADFECCFDF9189
:1001A000CF91089580919800811101C0939880911A
:1001B0009900882369F0809160009FEF980F9093D9
:1001C0006000882329F092B380E2892782BB06C0B1
:1001D00095988AE0809360001092990064EF71E036
:1001E00082ED90E007C2909195008091920091304D
:1001F00021F5882359F0813021F0823021F483E009
:1002000026C082E024C01092920037C02091910055
:1002100080919000820F20918F00820F71F12EB596
:100220008DE082278EBD809198009827909398004A
:1002300092B380E1892782BB20C0813059F018F049
:10024000833091F01AC08EB58D70B9F481E080933F
:10025000920013C0E199FECF43E050E060E070E00F
:100260008FE890E0A2D209C0E199FECF43E050E0D0
:1002700060E070E08FE890E0A6D2109295000895BB
:100280000F931F93CF93DF93CDB7DD27C450CDBF1E
:1002900060E081E05CDF0FE810E0BE016F5F7F4F40
:1002A000F80181918F013CD263DFF0E002391F0732
:1002B00021F087E690E05CDFF0CF80919200882308
:1002C00081F08FE0FEDE80919200813021F082305B
:1002D00021F464E003C067E001C061E081E037DF42
:1002E00002C08CE0EEDE64E670E080E491E082D152
:1002F000CC5FCDBFDF91CF911F910F910895809179
:100300009600811114C08091950082990AC091E0F5
:100310009093960010929700811128C090939500B9
:1003200025C0882319F183EF90E04BD11FC08130A5
:1003300099F482990CC0809197008E3120F48F5FE0
:100340008093970013C01092970082E00DC0109226
:100350009600109297000AC0823041F4829B06C03A
:1003600010929600109297008093950064E170E0DF
:100370008FE791E03FC180B383702091930090910B
:100380009400213099F01CF4222331F01DC022305A
:1003900091F02330A9F018C0823011F49F5F03C0A0
:1003A000813091F49150909394000EC08823B1F362
:1003B0008330C1F309C0833089F3882399F304C0E3
:1003C000813061F3823071F38093930080919400C7
:1003D0008D5F873018F081E192E0F3D061E070E04A
:1003E0008BEB91E007C1E82FF0E0809194008595B8
:1003F0008595DF01A157BF4F9C91890FE65DFF4FA7
:10040000E491482F082E000C550B2E2F30E02417B6
:10041000350714F08C9301C01C928C9187FDEC93EE
:10042000089580919200823031F0833031F0813034
:1004300031F482E003C081E001C080E0D4DF10929B
:10044000940008951F920F920FB60F9211242F93CC
:100450003F934F935F936F937F938F939F93AF934C
:10046000BF93EF93FF9329D1FF91EF91BF91AF918C
:100470009F918F917F916F915F914F913F912F91BC
:100480000F900FBE0F901F9018951F920F920FB6EE
:100490000F9211248F939F9392B388E0892782BB98
:1004A00080919100811114C08091900081110BC046
:1004B00080918F0018167CF4815080938F008BE31D
:1004C0008093900006C08150809390008BE301C020
:1004D0008150809391009091910080919000890FBC
:1004E00090918F00890F49F494981092980081E0C0
:1004F000809399008EB5827F8EBD9F918F910F90D2
:100500000FBE0F901F9018958C9A949882E080BF30
:1005100083E083BF8DE786BF89B7816089BF1FBC39
:100520001EBC84E89EE19BBD8ABD1DBC1CBC89B776
:10053000806489BF81B38C7F81BB8A988B9A9398A2
:100540008D9A15D0D7DD7894CADD81E690E010DE73
:100550008BEB91E036D08FE791E033D082ED90E0E5
:1005600030D080E491E02DD075D0FECF089586EB99
:1005700092E0909384008093830090938600809310
:100580008500909388008093870090938A008093E1
:10059000890090938C0080938B0080E090E026EBA4
:1005A00032E0FC01EE0FFF1FEE0FFF1FE559FF4F7A
:1005B000318320831382128201968530910589F759
:1005C0000895AC019FB7F89420E030E0F901EE0FF8
:1005D000FF1FED57FF4F60817181665B724031F004
:1005E0002F5F3F4F2530310589F702C0518340838B
:1005F0009FBF0895AC019FB7F89420E030E0F90167
:10060000EE0FFF1FEE0FFF1FE559FF4FA081B181D5
:10061000A417B507A9F02F5F3F4F2530310579F7B3
:1006200020E030E0F901EE0FFF1FEE0FFF1FE5594C
:10063000FF4FA081B181A65BB24029F45183408372
:100640007383628305C02F5F3F4F2530310551F71B
:100650009FBF0895F894E0918300F091840082E0B8
:10066000E63BF80741F180918500909186009093D8
:1006700084008093830080918700909188009093FC
:100680008600809385008091890090918A009093E4
:1006900088008093870080918B0090918C009093CC
:1006A0008A008093890086EB92E090938C0080937F
:1006B0008B007894099478940895EF92FF920F93A9
:1006C0001F93CF93DF9300E010E096EBE92E92E0CA
:1006D000F92EE801CC0FDD1FCC0FDD1FC559DF4F10
:1006E00088819981865B924079F08A819B81892BF0
:1006F00031F08A819B8101979B838A8305C0888121
:1007000099815FDFF982E8820F5F1F4F0530110585
:1007100001F7DF91CF911F910F91FF90EF90089516
:10072000EF92FF920F931F93CF93DF93DB01811121
:1007300009C080E38C9311968C93119712961C92AA
:1007400012972BC091E08A3008F090E00DE210E0A3
:10075000ED017D0123E0E20EF11CF8014591559178
:100760006591749120E0841718F02F5F841BFBCFF4
:10077000205D29930F5F1F4FCE15DF0571F713968C
:100780001C921397892F90E0FD01E80FF91FDF01FC
:10079000A81BB90B21912033D1F3CD01DF91CF916B
:1007A0001F910F91FF90EF900895A82F862FE82FAB
:1007B000E199FECF05C0EEBBE09AE3950DB20D9234
:1007C0004150C8F70895A82F862F02C02D9104D05C
:1007D0004150E0F70895262FE199FECF1CBA8EBB59
:1007E0002DBB0FB6F894E29AE19A0FBE01960895D8
:0407F000F894FFCFAB
:0A07F4000A2054696D65723A000096
:00000001FF
